:020000040000FA
:10000000012803138316DF30860083120430920028
:100010000430930008309400940B0F281928920B99
:1000200012282628203086003F20003086003F20FE
:100030000C280830940004309200043093003F20D4
:100040003F203F203F203F203F200C2838202828F9
:10005000930B2B2832282030860038200030860071
:1000600038202828043092000430930038200C28CF
:10007000FF309000FF309100033095004528FF309D
:1000800090002830910002309500900B4528910B8C
:080090004528950B45280034BA
:0400980000340034FC
:02400E00F13F80
:00000001FF
